:020000040800F2
:100000000050002021020008C92C0008CD2C000857
:10001000D12C0008D52C0008D92C000800000000C5
:10002000000000000000000000000000DD2C0008BF
:10003000E12C000800000000E52C0008E92C000875
:10004000B9290008B9290008B9290008B929000808
:10005000B9290008B9290008B9290008B9290008F8
:10006000B9290008B9290008B9290008B9290008E8
:10007000B9290008B9290008B9290008B9290008D8
:10008000B9290008B9290008B9290008B9290008C8
:10009000F52C0008B9290008B9290008B929000879
:1000A000B9290008B9290008B9290008B9290008A8
:1000B000B9290008B9290008B9290008B929000898
:1000C000B9290008B9290008B9290008B929000888
:1000D000B9290008B9290008B9290008B929000878
:1000E000B9290008B9290008B92900080000000052
:1000F0000000000000000000000000000000000000
:1001000000000000000000005FF808F100B583B0B7
:1001100002F0BAFB304B314A1360314A1360314B65
:10012000314A03E011681960043304322F498B42CD
:10013000F8D32A4B1A682E4B9A4204D1284B1A68DE
:100140002C4B9A4200D0FEE7234B2B4A13602B4ADC
:1001500013602B4B02E000221A600433294A9342B9
:10016000F9D3254B1B6813B9244B1B6803B1FEE779
:1001700002F096FB01A8694602F02EFB224C234BAD
:100180001C1BA410002504E01F4B53F82530984792
:100190000135AC42F8DC1E4C1E4B1C1BA410002584
:1001A00004E01B4B53F8253098470135AC42F8DC8E
:1001B0000198009902F010FD0546174C174B1C1BC7
:1001C000A41004E0013C144B53F824309847002C51
:1001D000F8DC284602F0DCFABABADECA00000020D9
:1001E000DC0100200000002040470008E001002062
:1001F0007856341232547698E001002034150020ED
:10020000E00100203815002078030008780300087A
:1002100078030008780300087803000878030008D2
:1002200008B5FFF773FF00BF00BEFEE71EF0040F26
:100230000CBFEFF30880EFF309807146414A104785
:100240002DE9F04182B004468846134B5E6B9D6BEE
:100250009F6A1B6B13F0020F0DD00F4BDB6A002B54
:1002600009DA4BF6AB6102F097FB20B14FF0004288
:10027000094BDA620CE0094802F0B6FACDF80080CA
:100280002046394632462B4602F00EFB00BEFEE702
:1002900002B0BDE8F08100BF00ED00E0504600086C
:1002A00000BEFEE71EF0040F0CBFEFF30880EFF373
:1002B00009807146244A10472DE9F04182B0074673
:1002C0008846084B5D6B9C6B9E6A074802F08CFA6F
:1002D000CDF80080384631462A46234602F0E4FA3B
:1002E00000BEFEE700ED00E0604600081EF0040FCF
:1002F0000CBFEFF30880EFF309807146134A1047F3
:100300002DE9F04182B007468846084B5D6B9C6B37
:100310009E6A074802F068FACDF8008038463146F8
:100320002A46234602F0C0FA00BEFEE700ED00E0D8
:100330006C46000800BEFEE700BEFEE700BEFEE71A
:100340007047000041020008B902000801030008DC
:100350004047000800000020E0010020404700085E
:100360000000000000000000E0010020381500201F
:08037000000000000000000085
:1003780010B504460E4B18784FF47A73B3FBF0F3BC
:100388000C4A1068B0FBF3F000F0C4F858B90F2C11
:100398000BD84FF0FF302146002200F065F8064BDD
:1003A8001C60002010BD012010BD012010BD00BF41
:1003B80008000020140000200400002008B5074AA7
:1003C800136843F010031360032000F02FF8002097
:1003D800FFF7CEFF02F018FC002008BD0020024005
:1003E800034A1368034909780B441360704700BF38
:1003F8009804002008000020014B1868704700BFCF
:100408009804002038B50446FFF7F6FF0546B4F116
:10041800FF3F02D0044B1B781C44FFF7EDFF401B45
:100428008442FAD838BD00BF0800002010B5044641
:10043800C31E042B03D90A48A22102F0E3FB04F0EF
:100448000700084AD36823F4E0631B041B0C43EA43
:10045800002040F0BF6040F40030D06010BD00BF05
:100468000C44000800ED00E070B504460E46154641
:100478000F2A03D91A48BA2102F0C4FB0F2E03D958
:100488001748BB2102F0BEFB164BDB68C3F30223FF
:10049800C3F10702042A28BF0422191D062901D91D
:1004A800D81E00E00020012303FA02F2013A32408C
:1004B80002FA00F183405A1E2A400A43002C06DA49
:1004C80004F00F041201D2B2074B1A5570BD120185
:1004D800D2B204F1604404F5614484F8002370BD8D
:1004E8000C44000800ED00E014ED00E010B5041E17
:1004F80003DA0648CE2102F085FB610904F01F04E7
:100508000123A340024A42F8213010BD0C440008E0
:1005180000E100E00138B0F1807F0AD2064B586054
:10052800F021064A82F823100020986007221A60FA
:1005380070470120704700BF10E000E000ED00E0C8
:1005480010B50446042805D020B1094840F2D91155
:1005580002F058FB042C05D1064A136843F0040343
:10056800136010BD034A136823F00403136010BD21
:100578000C44000810E000E0704700BF08B5FFF722
:10058800FBFF08BD002870D0F0B587B004460268AC
:10059800384B9A4203D038489F2102F033FB94F835
:1005A800293413F0FF0F05D1002384F8283420469E
:1005B80002F0FCFB032384F82934206801F010FCC6
:1005C800254655F8107B6E460FCD0FC62B68336055
:1005D800231D0ECB384601F0F1FB2068002101F005
:1005E80009FC002310E004EB4312012182F82910D2
:1005F80082F828309386002182F82B109163D1630A
:100608009A1C5201A15001330E2BECD9002312E0A1
:1006180004EB4311002281F8292281F828328B86C5
:1006280081F82B22C1F83822C1F83C2203F11201CB
:100638004901625001330E2BEAD9254655F8107B43
:100648006E460FCD0FC62B683360231D0ECB384680
:1006580001F0D2FB002584F82450012384F82934C2
:10066800206801F0F3FE284601E00120704707B03A
:10067800F0BD00BF005C00403C44000890F82834FE
:10068800012B10D010B50446012180F8281402F07F
:10069800DDFC206801F0D8FE206801F097FB0020FF
:1006A80084F8280410BD0220704700BF10B5044626
:1006B80090F82834012B0BD0012380F8283480F8D7
:1006C8002410006801F0BAFE002084F8280410BD48
:1006D800022010BD38B50546C8B210F0800F05D00D
:1006E80001F07F0405EB4414283405E001F07F0491
:1006F80005EB441404F50A7401F07F012170C00968
:1007080060702261E37095F82834012B0AD0012328
:1007180085F828342868214601F084FB002085F8F4
:10072800280438BD022038BD10B50446CAB212F0FC
:10073800800F05D001F07F0300EB4313283305E059
:1007480001F07F0300EB431303F50A7301F07F0107
:100758001970D2095A7094F82824012A0AD0012263
:1007680084F828242068194601F0FAFC002084F84F
:10077800280410BD022010BD70B501F07F056C0182
:1007880004F50A7101440444C4F83C2205F112023C
:100798005201861883500023736084F8293284F844
:1007A80028521DB9006801F06FFE02E0006801F0F0
:1007B8006BFE002070BD00BF01F00F0100EB41107F
:1007C800B0F84402704700BF70B501F07F056C01B6
:1007D80004F1280101440444E263AA1C520186186A
:1007E800835000237360012384F8293084F828504B
:1007F8001DB9006801F048FE02E0006801F044FEFF
:10080800002070BD70B582B004460023ADF80630F4
:10081800ADF8043008E2BDF8065015F00F0540F0B9
:10082800C580BDF8063003F010039BB293BB038864
:100838009BB223F4E14323F070039BB20380216849
:10084800B1F850309AB294F8283002EBC30301EBA8
:100858004303D3F80434C3F309036364E26B13441A
:10086800E3632046002102F0D5FA94F8243013F00F
:10087800FF0F00F0D981236C002B40F0D58122684E
:1008880094F8243043F08003A2F84C30002384F815
:100898002430C9E103889BB2ADF80430BDF80430B8
:1008A80003F400639BB2FBB1B0F850309BB294F8EC
:1008B800282203EBC20300EB4303D3F80C34C3F341
:1008C8000903C4F8443204F22C41B4F82C2201F094
:1008D8004BFF2268138823F070031B051B0D138040
:1008E800204602F083FA9FE1BDF804301BB2002BCA
:1008F80080F29A81038823F070031B051B0D038087
:100908002068B0F850309BB294F8282203EBC20359
:1009180000EB4303D3F80C34C3F30903C4F844329F
:1009280063B1D4F83C12B4F82C2201F01DFFD4F8BE
:100938003C22D4F844321344C4F83C322046002107
:1009480002F05EFA2268B2F850309BB2063302EB2E
:100958004303D4F838123E290ED9C1F34F1211F0CF
:100968001F0F01D1013A92B26FEAC2626FEA524296
:1009780092B2C3F800240AE0C1F34F0211F0010F4C
:1009880001D0013292B2920292B2C3F800242268D6
:1009980013889BB223F4804323F0700383F44053FD
:1009A80043F4004343F0800313803DE1236833F8A8
:1009B80025309BB2ADF80430BDF804301BB2002BD3
:1009C80080F2958030F8253023F070031B051B0D4D
:1009D80020F8253004EB451393F83232DBB9206850
:1009E800B0F850309BB204EB451292F8282203EB82
:1009F800C20300EB4303B3F80C64C6F30906002EE8
:100A080050D004EB4513D3F83C12B3F82C223346EC
:100A180001F0AAFE46E0206804EB451393F828127B
:100A280030F8213003F480439BB2ABB1B0F85020CA
:100A380092B202EBC10300EB4303B3F80464C6F3BC
:100A48000906F6B104EB4513D3F83C12B3F82E228D
:100A5800334601F089FE14E0B0F850309BB203EB46
:100A6800C10300EB4303B3F80C64C6F3090646B1AF
:100A780004EB4513D3F83C12B3F83022334601F0A7
:100A880073FE226804EB451393F8281232F82130DC
:100A980023F0F0031B051B0D43F4004343F0C00390
:100AA80022F8213005F112035B01E1184A6832444B
:100AB8004A6004EB4511D1F83C223244C1F83C228B
:100AC800E3582BB104EB4511D1F838128E4207D206
:100AD80004EB4513204693F8281202F091F906E03A
:100AE80004EB4511204691F82812FFF745FEBDF8A2
:100AF800043003F080039BB2002B00F0958022683D
:100B080032F825309BB223F4E14323F070039BB203
:100B180022F8253004EB451393F83230CBB920681E
:100B2800B0F850309BB204EB451292F8282003EB42
:100B3800C20300EB4303D3F80434C3F3090304EB03
:100B480045125364002B47D0D16B928D01F086FC7F
:100B580042E0206804EB451393F8281030F8213060
:100B680003F040039BB29BB1B0F8502092B202EB65
:100B7800C10300EB4303D3F80434C3F3090304EBC4
:100B880045125364BBB1D16BD28D01F067FC12E002
:100B9800B0F850309BB203EBC10300EB4303D3F82A
:100BA8000C34C3F3090304EB451253641BB1D16B36
:100BB800128E01F053FC226804EB451393F82810B9
:100BC80032F8213023F0F0031B051B0D43F440439A
:100BD80043F0800322F821302068B0F850309AB2F0
:100BE80004EB451191F8283002EBC30300EB4303F3
:100BF800D3F80434C3F30903A81C40012218536036
:100C0800CA6B1A44CA6323583BB904EB45152046FE
:100C180095F8281002F0FEF806E004EB451520468A
:100C280095F82810FFF7D0FD2068B0F844309BB243
:100C3800ADF8063013F4004F7FF4EDAD002002B09C
:100C480070BD00BF10B50446006801F001FC10F447
:100C5800004F02D02046FFF7D5FD206801F0F8FBD1
:100C680010F4806F0FD02268B2F8443023F4806308
:100C78001B041B0CA2F84430204602F0DBF8204687
:100C88000021FFF713FD206801F0E2FB10F4804F0C
:100C980008D02268B2F8443023F480431B041B0CAC
:100CA800A2F84430206801F0D3FB10F4005F08D0AC
:100CB8002268B2F8443023F400531B041B0CA2F83A
:100CC8004430206801F0C4FB10F4805F1DD0226816
:100CD800B2F8403023F004031B041B0CA2F8403088
:100CE8002268B2F8403023F008031B041B0CA2F85A
:100CF8004030204602F0BAF82268B2F8443023F4B3
:100D080080531B041B0CA2F84430206801F0A0FBA0
:100D180010F4006F21D02268B2F840309BB243F043
:100D28000803A2F840302268B2F8443023F4006384
:100D38001B041B0CA2F844302268B2F840309BB266
:100D480043F00403A2F84030206801F081FB10F45E
:100D5800805F02D1204602F079F8206801F078FB24
:100D680010F4007F0BD02268B2F8443023F40073EB
:100D78001B041B0CA2F84430204602F055F82068EA
:100D880001F066FB10F4807F08D02268B2F8443086
:100D980023F480731B041B0CA2F8443010BD00BF61
:100DA80038B50546CAB212F0800F05D001F07F03AE
:100DB80000EB4313283303E000EB411303F50A73F8
:100DC8000120987001F07F041C70D2095A7095F8C0
:100DD800282482420FD085F828042868194601F093
:100DE800A9FA24B9286805F22C4101F035FB002046
:100DF80085F8280438BD022038BD00BF10B5044668
:100E0800CAB212F0800F05D001F07F0300EB431344
:100E1800283303E000EB411303F50A7300209870B0
:100E280001F07F011970D2095A7094F82824012A18
:100E38000AD0012284F828242068194601F0B2FA61
:100E4800002084F8280410BD022010BD10B401F061
:100E58008004A4B22CB101F07F0100EB41102830CE
:100E680003E000EB411000F50A7012B9827283802A
:100E780004E001228272C3801B0C038100205DF80C
:100E8800044B704782B0084B1B68084AA2FB032337
:100E98005B0A00FB03F0019000BF019B5A1E019200
:100EA800002BF9D102B0704714000020D34D621016
:100EB80070B582B0044620B9AA484FF4B87101F061
:100EC800A1FE23683BB113F00F0F04D1A54840F2EF
:100ED800711101F097FE236813F0010F78D0636851
:100EE80053B1B3F5803F07D0B3F5A02F04D09D4888
:100EF80040F2771101F086FE9B4B5B6803F00C0310
:100F0800042B0AD0984B5B6803F00C03082B0DD117
:100F1800954B5B6813F4803F08D0934B1B6813F420
:100F2800003F55D06368002B52D12CE26368B3F5BB
:100F3800803F05D18C4A136843F48033136026E060
:100F480063B903F1804303F504331A6822F480324D
:100F58001A601A6822F480221A6018E0B3F5A02FEC
:100F68000CD103F18043A3F53C331A6842F4802284
:100F78001A601A6842F480321A6008E07A4B1A68DC
:100F880022F480321A601A6822F480221A60636898
:100F98007BB1FFF731FA054605E0FFF72DFA401B54
:100FA800642800F2F281704B1B6813F4003FF4D000
:100FB8000EE0FFF721FA054605E0FFF71DFA401B92
:100FC800642800F2E481684B1B6813F4003FF4D1F5
:100FD800236813F0020F60D02369012B04D96148FC
:100FE80040F2AB1101F00EFE63691F2B04D95D4876
:100FF8004FF4D67101F006FE5B4B5B6813F00C0FE3
:101008000AD0594B5B6803F00C03082B16D1564BDA
:101018005B6813F4803F11D1534B1B6813F0020F28
:1010280003D02369012B40F0B4814F4A136823F0A1
:10103800F803616943EAC10313602EE02369D3B161
:1010480001224A4B1A60FFF7D7F9054605E0FFF77A
:10105800D3F9401B022800F29E81434B1B6813F012
:10106800020FF4D0404A136823F0F803616943EA99
:10107800C103136011E000223C4B1A60FFF7BCF972
:10108800054605E0FFF7B8F9401B022800F2858104
:10109800354B1B6813F0020FF4D1236813F0080FC7
:1010A80031D0A369012B04D92E484FF4F67101F011
:1010B800A9FDA369ABB101222D4B1A60FFF79CF97A
:1010C800054605E0FFF798F9401B022800F2678102
:1010D800254B5B6A13F0020FF4D00120FFF7D2FE14
:1010E80011E00022224B1A60FFF786F9054605E059
:1010F800FFF782F9401B022800F253811A4B5B6A02
:1011080013F0020FF4D1236813F0040F00F0968057
:10111800E368012B06D9052B04D0124840F21B21A5
:1011280001F070FD104BDB6913F0805F0BD10E4BA3
:10113800DA6942F08052DA61DB6903F08053019387
:10114800019B012500E000250A4B1B6813F4807FF2
:101158001DD1084A136843F480731360FFF74CF9F4
:1011680006460FE07C44000800100240000042429E
:101178008004424200700040FFF73EF9801B64285B
:1011880000F21181904B1B6813F4807FF4D0E36860
:10119800012B05D18D4A136A43F00103136222E043
:1011A80063B903F1804303F504331A6A22F001029C
:1011B8001A621A6A22F004021A6214E0052B09D195
:1011C800824B1A6A42F004021A621A6A42F0010259
:1011D8001A6208E07D4B1A6A22F001021A621A6A42
:1011E80022F004021A62E3688BB1FFF705F906469C
:1011F80007E0FFF701F9801B41F28833984200F2BB
:10120800D480724B1B6A13F0020FF2D010E0FFF784
:10121800F3F8064607E0FFF7EFF8801B41F2883342
:10122800984200F2C480694B1B6A13F0020FF2D196
:1012380025B1664AD36923F08053D361E369022B51
:1012480004D9634840F2B92101F0DCFCE369002BC2
:1012580000F0AF805D4A526802F00C02082A00F0E4
:10126800AA80022B7CD1236A3BB1B3F5803F04D01E
:10127800574840F2C22101F0C5FC636A73B3B3F565
:10128800802F2BD0B3F5002F28D0B3F5402F25D0D1
:10129800B3F5801F22D0B3F5A01F1FD0B3F5C01F30
:1012A8001CD0B3F5E01F19D0B3F5001F16D0B3F565
:1012B800101F13D0B3F5201F10D0B3F5301F0DD079
:1012C800B3F5401F0AD0B3F5501F07D0B3F5601F20
:1012D80004D03F4840F2C32101F094FC00223D4B6A
:1012E8001A60FFF789F8054604E0FFF785F8401B08
:1012F800022862D8354B1B6813F0007FF5D1236AAA
:10130800B3F5803F10D1A3683BB1B3F5003F04D0DB
:101318002F4840F2D92101F075FC2C494B6823F481
:101328000032A36813434B602848436823F47411C0
:10133800236A626A13430B4343600122254B1A60F8
:10134800FFF75AF8044604E0FFF756F8001B022896
:1013580035D81E4B1B6813F0007FF5D0002031E014
:1013680000221C4B1A60FFF747F8044604E0FFF719
:1013780043F8001B022824D8144B1B6813F0007F85
:10138800F5D100201EE001201CE003201AE0032014
:1013980018E0012016E0032014E0032012E00320E7
:1013A80010E003200EE003200CE003200AE00320F5
:1013B80008E0002006E0012004E0032002E003200A
:1013C80000E0032002B070BD007000400010024031
:1013D8007C4400086000424230B486B0164D02AC2E
:1013E80028686968AA68EB680FC42B8AADF80430CE
:1013F800124B5B6803F00C02082A19D1C3F383422D
:1014080006A90A4412F8100C13F4803F0CD00B4BB9
:101418005B68C3F340430B4413F8142C084B03FBDD
:1014280000F0B0FBF2F004E0064B03FB00F000E034
:10143800034806B030BC70476844000800100240FA
:1014480000127A0000093D0070B50D46044620B927
:10145800894840F22E3101F0D5FB236813F00F0FB5
:1014680004D1854840F22F3101F0CCFB022D04D97C
:1014780081484FF44C7101F0C5FB804B1B6803F0A9
:101488000703AB420BD27D4A136823F007032B43B3
:101498001360136803F00703AB4240F0DC80236855
:1014A80013F0020F1DD0A368A3B1802B12D0902B8C
:1014B80010D0A02B0ED0B02B0CD0C02B0AD0D02B24
:1014C80008D0E02B06D0F02B04D06B4840F249310D
:1014D80001F098FB6A494B6823F0F002A3681343B4
:1014E8004B60236813F0010F57D06368022B04D9AF
:1014F80061484FF4547101F085FB6268012A05D1F7
:101508005F4B1B6813F4003F0ED1A6E0022A05D1F9
:101518005B4B1B6813F0007F06D1A0E0584B1B689B
:1015280013F0020F00F09D8055494B6823F0030328
:1015380013434B60FEF760FF06466368012B0FD12B
:1015480007E0FEF759FF801B41F28833984200F20A
:101558008A804B4B5B6803F00C03042BF1D11CE031
:10156800022B15D106E0FEF747FF801B41F28833B6
:1015780098427AD8424B5B6803F00C03082BF2D1EF
:101588000BE0FEF739FF801B41F2883398426ED892
:101598003B4B5B6813F00C0FF3D1384B1B6803F01F
:1015A8000703AB420AD9354A136823F007032B43D4
:1015B8001360136803F00703AB425AD1236813F092
:1015C800040F19D0E36883B1B3F5806F0DD0B3F57C
:1015D800A06F0AD0B3F5C06F07D0B3F5E06F04D0A1
:1015E80025484FF4697101F00DFB25494B6823F438
:1015F800E062E36813434B60236813F0080F1AD0C6
:10160800236983B1B3F5806F0DD0B3F5A06F0AD00D
:10161800B3F5C06F07D0B3F5E06F04D0164840F2B9
:10162800AB3101F0EFFA164A536823F4605321698D
:1016380043EAC1035360FFF7CFFE114B5B68C3F366
:101648000313104AD35CD8400F4B18600020FEF7F4
:101658008FFE002070BD012070BD012070BD0120EB
:1016680070BD012070BD032070BD032070BD032034
:1016780070BD012070BD00BF7C44000800200240FE
:10168800001002407C46000814000020014B186836
:10169800704700BF1400002070B582B0044603688C
:1016A80013F0130F03D156487C2101F0ABFA2368DD
:1016B80013F0010F6BD0636863B1B3F5807F09D075
:1016C800B3F5007F06D0B3F5407F03D04C488221A4
:1016D80001F098FA4B4BDB6913F0805F0BD1494B53
:1016E800DA6942F08052DA61DB6903F080530193D2
:1016F800019B012600E00026434B1B6813F4807F02
:1017080012D1414A136843F480731360FEF774FEE4
:10171800054604E0FEF770FE401B642868D83A4B83
:101728001B6813F4807FF5D0364B1B6A13F44073A3
:1017380021D0626802F440729A421CD0314A136A7E
:1017480023F44070314901250D6000250D601062B9
:1017580013F0010F0FD0FEF74FFE054606E0FEF727
:101768004BFE401B41F28833984243D8254B1B6AF5
:1017780013F0020FF3D023490B6A23F44072636815
:1017880013430B621EB1CB6923F08053CB612368EE
:1017980013F0020F15D0A36863B1B3F5804F09D0D9
:1017A800B3F5004F06D0B3F5404F03D01448C92114
:1017B80001F028FA13494B6823F44042A368134305
:1017C8004B60236813F0100F16D0E368B3F5800F51
:1017D80005D023B10A4840F2251101F013FA09494E
:1017E8004B6823F48002E36813434B60002004E055
:1017F800032002E0032000E0002002B070BD00BF1B
:10180800A844000800100240007000404004424212
:1018180010B4036A046A24F001040462846924F0A1
:10182800F00444EA021223F00A03194382610162B8
:101838005DF8044B704700BF10B4036A23F010032F
:1018480003628469036A24F4704444EA023223F090
:10185800A00343EA0111826101625DF8044B7047FD
:1018680010B4846824F47F4442EA032319430C43E8
:1018780084605DF8044B704738B505460C4602682D
:10188800936823F0700349680B4323F0070321682A
:101898000B4393606368302B00F0278109D8102B25
:1018A80000F0F980202B00F00B81002B40F03181F3
:1018B800DCE0502B78D002D8402B48D038BD602BC4
:1018C80000F0A380702B40F024810368914A934272
:1018D8000FD0B3F1804F0CD0A2F59432934208D0C8
:1018E80002F58062934204D08B4841F2413101F005
:1018F80089F9E3686BB1B3F5805F0AD0B3F5005F8F
:1019080007D0B3F5405F04D0834841F2423101F07B
:1019180079F9A368B3F5004F0AD04BB143B1022B54
:1019280006D00A2B04D07C4841F2433101F06AF911
:1019380023690F2B04D9784841F2443101F062F948
:101948002868E168A2682369FFF78AFF38BD036841
:10195800704A93420FD0B3F1804F0CD0A2F5943265
:10196800934208D002F58062934204D06A4841F25B
:10197800503101F047F923690F2B04D9664841F229
:10198800513101F03FF92B68196A1A6A22F00102F5
:101998001A622A68936923F0F003206943EA001366
:1019A80093612B68196238BD03685A4A93420FD075
:1019B800B3F1804F0CD0A2F59432934208D002F5CF
:1019C8008062934204D0544841F2663101F01AF91A
:1019D800A368B3F5004F0AD04BB143B1022B06D030
:1019E8000A2B04D04C4841F2673101F00BF9236906
:1019F8000F2B04D9484841F2683101F003F92868EF
:101A0800A1682269FFF704FF38BD0368414A934281
:101A18000FD0B3F1804F0CD0A2F59432934208D086
:101A280002F58062934204D03B4841F2743101F0E0
:101A3800E9F8A368B3F5004F0AD04BB143B1022BC4
:101A480006D00A2B04D0344841F2753101F0DAF897
:101A580023690F2B04D9304841F2763101F0D2F8CE
:101A68002868A1682269FFF7E7FE38BD0368294A9C
:101A780093424ED0B3F1804F4BD0A2F594329342AB
:101A880047D002F58062934243D0234841F2823125
:101A980001F0B8F838BD03681E4A934239D0B3F153
:101AA800804F36D0A2F59432934232D002F580624C
:101AB80093422ED0184841F2893101F0A3F838BD7D
:101AC8000368144A934224D0B3F1804F21D0A2F581
:101AD800943293421DD002F58062934219D00E4889
:101AE80041F2903101F08EF838BD0368094A9342FB
:101AF8000FD0B3F1804F0CD0A2F59432934208D0A6
:101B080002F58062934204D0034841F2973101F014
:101B180079F838BD002C0140D844000870B5044657
:101B28000D4603682B4A93420FD0B3F1804F0CD077
:101B3800A2F59432934208D002F58062934204D011
:101B480025484FF4815101F05DF82B6863B1052BEE
:101B58000AD0042B08D0062B06D0072B04D01E4829
:101B680041F2210101F04EF86B6893B1102B10D0AF
:101B7800202B0ED0302B0CD0402B0AD0502B08D065
:101B8800602B06D0702B04D0134841F2220101F0DB
:101B980039F894F83C30012B19D0012684F83C60C0
:101BA800022384F83D3020462946FFF765FE226867
:101BB800D36823F04003D3602268D36823F48043BA
:101BC800D36084F83D60002084F83C0070BD02209A
:101BD80070BD00BF002C0140D844000803681A4AB1
:101BE80090420AD0B0F1804F07D0A2F594329042CB
:101BF80003D002F58062904203D123F070034A6853
:101C08001343114A90420AD0B0F1804F07D0A2F591
:101C18009432904203D002F58062904203D123F4BB
:101C28004073CA68134323F080034A69134303606F
:101C38008B68C3620B688362034B984201D10B69BE
:101C48000363012343617047002C014000284ED0F4
:101C580010B504460368274A93420ED0B3F1804F6B
:101C68000BD0A2F59432934207D002F580629342DA
:101C780003D02148D52100F0C5FFA3685BB1102B24
:101C880009D0202B07D0402B05D0602B03D01A4851
:101C9800D62100F0B7FF23694BB1B3F5807F06D09A
:101CA800B3F5007F03D01448D72100F0ABFFA36938
:101CB8002BB1802B03D01048D82100F0A3FF94F853
:101CC8003D3013F0FF0F05D1002384F83C30204647
:101CD80000F0E2FF022384F83D30214651F8040B5E
:101CE800FFF77CFF012384F83D30002010BD012060
:101CF800704700BF002C0140D844000838B504469E
:101D08000D4603682B4A93420FD0B3F1804F0CD095
:101D1800A2F59432934208D002F58062934204D02F
:101D280025484FF4C76100F06DFF2B6893B1102B65
:101D380010D0202B0ED0302B0CD0402B0AD0502B9B
:101D480008D0602B06D0702B04D01B4840F23961B4
:101D580000F058FF6B68802B05D023B1164840F27D
:101D68003A6100F04FFF94F83C30012B1FD001225C
:101D780084F83C20022384F83D3021684B6823F026
:101D880070034B60216848682B6803434B602168E7
:101D98008B6823F080038B60216888686B68034335
:101DA8008B6084F83D20002084F83C0038BD022078
:101DB80038BD00BF002C01400445000884B001A8CC
:101DC80080E80E00002004B0704700BFB0F8403033
:101DD8009BB243F43F43A0F840300020704700BF57
:101DE800B0F8403023F474535B045B0CA0F8403027
:101DF800002070470020704784B038B505AC84E8EF
:101E08000E000123A0F840300024A0F84040A0F8BC
:101E18004440A0F85040FFF7D9FF2046BDE83840BD
:101E280004B0704710B4CB78032B35D8DFE803F043
:101E380002280F1B0A7830F822309BB223F4EC43B7
:101E480023F0700343F4007320F8223024E00A786A
:101E580030F822309BB223F4EC4323F070039BB29A
:101E680020F8223018E00A7830F822309BB223F4A8
:101E7800EC4323F0700343F4C06320F822300BE0F6
:101E88000A7830F822309BB223F4EC4323F0700335
:101E980043F4806320F822300A7830F8223023F0A7
:101EA800F0031B051B0D134343F4004343F0800369
:101EB80020F822308B7A002B40F08A804B7883B34D
:101EC800B0F850309BB20A7803EBC20300EB43032F
:101ED8008A8852085200C3F800240A7830F8223061
:101EE80003F040039BB25BB130F8223023F0F003DB
:101EF8001B051B0D43F4004343F0C00320F82230B8
:101F08000A7830F822309BB223F4E04323F04003F0
:101F180083F0200343F4004343F0800320F8223089
:101F280019E1B0F850309BB20A7803EBC20300EB1A
:101F380043038A8852085200C3F80824B0F8503086
:101F48009BB20A7803EBC203063300EB43030C6928
:101F58003E2C0ED9C4F34F1214F01F0F01D1013AD1
:101F680092B26FEAC2626FEA524292B2C3F8002498
:101F78000AE0C4F34F0214F0010F01D0013292B20B
:101F8800920292B2C3F800240A7830F8223003F49F
:101F980080439BB25BB130F8223023F0F0031B057D
:101FA8001B0D43F4404343F0800320F822300A78A5
:101FB80030F822309BB223F4804323F0700383F47B
:101FC800405343F4004343F0800320F82230C2E03A
:101FD8000A7830F8223023F4F8731B051B0D43F4FC
:101FE800014343F0800320F82230B0F850309BB210
:101FF8000A7803EBC20300EB4303CA885208520075
:10200800C3F80024B0F850309BB20A7803EBC2033F
:1020180000EB43030A8952085200C3F808244B789E
:10202800002B4DD10A7830F8223003F480439BB25C
:102038005BB130F8223023F0F0031B051B0D43F48D
:10204800404343F0800320F822300A7830F82230E9
:1020580003F040039BB25BB130F8223023F0F00369
:102068001B051B0D43F4004343F0C00320F8223046
:102078000A7830F8223023F0F0031B051B0D43F4D7
:10208800004343F0C00320F822300C7830F82430A5
:102098009BB223F4804323F0700383F4405348F247
:1020A8008002134320F82430097830F821309BB29D
:1020B80023F4E04323F04003134320F821304AE09F
:1020C8000A7830F8223003F480439BB25BB130F8D1
:1020D800223023F0F0031B051B0D43F4404343F06B
:1020E800800320F822300A7830F8223003F04003C9
:1020F8009BB25BB130F8223023F0F0031B051B0DB7
:1021080043F4004343F0C00320F822300A7830F843
:10211800223023F0F0031B051B0D43F4404343F02A
:10212800800320F822300C7830F824309BB223F456
:10213800E04323F0400348F28002134320F82430A0
:10214800097830F821309BB223F4804323F07003E0
:10215800134320F8213000205DF8044B704700BF7E
:102168008B7A002B46D14B7813B30A7830F822309B
:1021780003F040039BB25BB130F8223023F0F00348
:102188001B051B0D43F4004343F0C00320F8223025
:102198000A7830F822309BB223F4E04323F040035E
:1021A80043F4004343F0800320F8223000207047B6
:1021B8000A7830F8223003F480439BB25BB130F8E0
:1021C800223023F0F0031B051B0D43F4404343F07A
:1021D800800320F822300A7830F822309BB223F4AA
:1021E800804323F0700343F4004343F0800320F856
:1021F8002230DBE710B44B78002B4BD10A7830F84B
:10220800223003F480439BB25BB130F8223023F0D4
:10221800F0031B051B0D43F4404343F0800320F8F3
:1022280022300A7830F8223003F040039BB25BB1C9
:1022380030F8223023F0F0031B051B0D43F4004354
:1022480043F0C00320F822300A7830F8223023F017
:10225800F0031B051B0D43F4004343F0C00320F8B3
:1022680022300C7830F824309BB223F4804323F0DA
:10227800700348F28002134320F82430097830F8BC
:1022880021309BB223F4E04323F04003134320F8AA
:1022980021304AE00A7830F8223003F480439BB2B8
:1022A8005BB130F8223023F0F0031B051B0D43F41B
:1022B800404343F0800320F822300A7830F8223077
:1022C80003F040039BB25BB130F8223023F0F003F7
:1022D8001B051B0D43F4004343F0C00320F82230D4
:1022E8000A7830F8223023F0F0031B051B0D43F465
:1022F800404343F0800320F822300C7830F8243033
:102308009BB223F4E04323F0400348F280021343D6
:1023180020F82430097830F821309BB223F4804328
:1023280023F07003134320F8213000205DF8044B9C
:10233800704700BF0A788AB930F822309BB223F47C
:10234800804323F0400383F4805383F0100343F465
:10235800004343F0800320F8223020E04B787BB123
:1023680030F822309BB223F4E04323F0400383F09B
:10237800100343F4004343F0800320F822300EE0BA
:1023880030F822309BB223F4804323F0700383F4A7
:10239800805343F4004343F0800320F822300020A8
:1023A800704700BF4B781BB30A7830F8223003F02F
:1023B80040039BB25BB130F8223023F0F0031B05D9
:1023C8001B0D43F4004343F0C00320F822300A7881
:1023D80030F822309BB223F4E04323F0400383F02B
:1023E800300343F4004343F0800320F8223022E016
:1023F8000A7830F8223003F480439BB25BB130F89E
:10240800223023F0F0031B051B0D43F4404343F037
:10241800800320F822300A7830F822309BB223F467
:10242800804323F0700383F4405343F4004343F0A4
:10243800800320F822300020704700BF11B98023A4
:10244800A0F84C30002070470020704700207047EB
:10245800B0F8440080B270470020704710B40133D0
:102468005B1000EB420202F5806207E00C784878C6
:1024780044EA002422F8044B0231013B002BF5D139
:102488005DF8044B704700BF70B54A78012A40F0E8
:10249800BF808E690B699E4203D9F61A8E611E466B
:1024A80001E000238B610D4604468B7A7BB94969AC
:1024B800AA88B3B2FFF7D2FFB4F850309BB22A789B
:1024C80003EBC20304EB4303C3F804648FE0097809
:1024D80030F8213003F040039BB293B322BBB0F82D
:1024E80050309BB203EBC101063100EB41013E2E97
:1024F8000ED9C6F34F1316F01F0F01D1013B9BB243
:102508006FEAC3636FEA53439BB2C1F8003416E025
:10251800C6F34F0316F0010F01D001339BB29B02A3
:102528009BB2C1F800340AE0012A08D1B0F8503053
:102538009BB203EBC10300EB4303C3F804642A898D
:1025480031E022BBB0F850309BB203EBC10102313D
:1025580000EB41013E2E0ED9C6F34F1316F01F0FA4
:1025680001D1013B9BB26FEAC3636FEA53439BB24D
:10257800C1F8003416E0C6F34F0316F0010F01D07E
:1025880001339BB29B029BB2C1F800340AE0012AD6
:1025980008D1B0F850309BB203EBC10300EB430302
:1025A800C3F80464EA8820466969B3B2FFF756FFA6
:1025B8006B786BB92A7834F8223023F0F0031B05C6
:1025C8001B0D43F4004343F0C00324F822300EE00F
:1025D800012B0CD12A7834F8223023F0F0031B05A4
:1025E8001B0D43F4404343F0800324F822302A783B
:1025F80034F822309BB223F4E04323F0400383F005
:10260800300343F4004343F0800324F82230A8E069
:102618008B690C69A34203D91B1B8B61234601E01C
:1026280000248C618C7A2CBBB0F8502092B20C78C4
:1026380002EBC402063200EB42023E2B0ED9C3F372
:102648004F1413F01F0F01D1013CA4B26FEAC46408
:102658006FEA5444A4B2C2F8004472E0C3F34F04D2
:1026680013F0010F01D00134A4B2A402A4B2C2F83D
:10267800004466E02ABBB0F8502092B20C7802EB16
:10268800C402023200EB42023E2B0ED9C3F34F14B0
:1026980013F01F0F01D1013CA4B26FEAC4646FEAC2
:1026A8005444A4B2C2F8004417E0C3F34F0413F033
:1026B800010F01D00134A4B2A402A4B2C2F80044AC
:1026C8000BE0012A09D1B0F8502092B20C7802EB45
:1026D800C40200EB4202C2F804344A782ABBB0F8BC
:1026E800502092B20C7802EBC402063200EB420290
:1026F8003E2B0ED9C3F34F1413F01F0F01D1013C29
:10270800A4B26FEAC4646FEA5444A4B2C2F80044A5
:1027180017E0C3F34F0413F0010F01D00134A4B242
:10272800A402A4B2C2F800440BE0012A09D1B0F80F
:10273800502092B20C7802EBC40200EB4202C2F8BD
:1027480004340A7830F822309BB223F4804323F013
:10275800700383F4405343F4004343F0800320F8AC
:102768002230002070BD00BF01335B1000EB420235
:1027780002F5806204E0106821F8020B013B043284
:10278800002BF8D1704700BFFEE700BF08B50D4B1E
:102798001B6813B90C4A0B4B1A600A4B1A68C31C06
:1027A80023F00303134409498B4206D901F0F2F9D7
:1027B8000C2303604FF0FF3008BD02490B60104640
:1027C80008BD00BFE401002038150020004C00209F
:1027D80001230360014B0B60704700BF0C00002011
:1027E8000FB400B583B004AB53F8042B0193084829
:1027F800802101F007FA011E03DD054800F03CF8CE
:102808000146084603B05DF804EB04B0704700BF0A
:10281800EC0100202DE9F04385B004460F46435CE7
:1028280013BB042528462146ABBE04461FE03546A7
:10283800102E28BF1025002306E014F8011B04AA57
:102848001A4402F8101C0133AB42F6D304AA13440D
:10285800002203F8102CE9464FF004084046494688
:10286800ABBE8046761B00E00E46002EDFD1384610
:1028780005B0BDE8F08300BF08B5FFF7CBFF08BD82
:1028880008B500F097F8024B024A9A6008BD00BFED
:1028980000ED00E00000000808B500F0B1F808BD40
:1028A800F8B504460D4617461E462648FFF798FF1A
:1028B80025482168FFF794FF24486168FFF790FFD7
:1028C8002348A168FFF78CFF2248E168FFF788FFDB
:1028D80021482169FFF784FF20486169FFF780FFDD
:1028E8001F48A169FFF77CFF1E48E169FFF778FFE1
:1028F8001D48FFF775FF1D482946FFF771FF1C4C5F
:10290800E16A1C48FFF76CFF216B1B48FFF768FF63
:10291800E16B1A48FFF764FF15F0800F03D01848E1
:102928003946FFF75DFF15F4004F03D015483146CF
:10293800FFF756FF1448FFF753FF14480699FFF7AF
:102948004FFFF8BD344500084445000854450008C9
:10295800644500087445000884450008944500084B
:10296800A4450008B4450008C4450008D04500083F
:1029780000ED00E0E0450008F045000800460008CA
:10298800104600082046000830460008384600086F
:1029980083691A888A4207D10268033A012A05D84E
:1029A8000233836101207047002070470020704780
:1029B800FEE700000F4B1A6842F001021A605968DE
:1029C8000D4A0A405A601A6822F0847222F4803252
:1029D8001A601A6822F480221A605A6822F4FE02E9
:1029E8005A604FF41F029A604FF00062034B9A60DE
:1029F800704700BF001002400000FFF800ED00E043
:102A08001F4B5B6803F00C03042B06D0082B08D07F
:102A18003BBB1C4A1C4B1A6026E01A4A1A4B1A6028
:102A280022E0174A53685268C3F38343023312F40F
:102A3800803F05D1154A02FB03F3134A136013E0E4
:102A48000F4A526812F4003F05D0104A02FB03F304
:102A58000D4A136008E00B4A02FB03F30A4A1360AD
:102A680002E0084A084B1A60054B5B68C3F303137E
:102A7800074AD15C044A1368CB401360704700BF13
:102A88000010024000127A001400002000093D00E6
:102A98007C46000882B00A4B9A6942F020029A618B
:102AA8009A6902F020020092009A9A6942F00402A0
:102AB8009A619B6903F004030193019B02B070477C
:102AC80000100240FEE700BF00B589B01648174B5A
:102AD8000360002343608360C360036143618361D3
:102AE800FFF7B4F818B11248C921FFF7EBFF072325
:102AF8000393002304930C4803A9FFF70FF818B1B8
:102B08000B48D021FFF7DEFF00230193029306480C
:102B180001A9FFF7F3F818B10548D721FFF7D2FF4D
:102B280009B05DF804FB00BFA0040020002C0140A0
:102B38008C46000800B595B001220A924FF4803304
:102B48000B9300210C910E920222119212934FF4D2
:102B5800E01313930AA8FEF7ABF918B11A489521A8
:102B6800FFF7B0FF0F230593022106910023079377
:102B78004FF480620892099305A8FEF765FC18B126
:102B88001148A321FFF79EFF10230193002304930C
:102B980001A8FEF781FD18B10B48AA21FFF792FFA3
:102BA800FEF774FD094BA3FB00308009FDF7B2FC6A
:102BB8000420FDF7C5FC4FF0FF3000210A46FDF761
:102BC80053FC15B05DF804FB8C460008D34D621029
:102BD80008B5FDF7F3FBFFF7ADFFFFF75BFF00F06C
:102BE8008DF8FFF771FF064C204600F0D9FF01462B
:102BF800204600F0C5F84FF47A70FDF703FCF2E7C1
:102C080018000020704700BF00B583B0204B9A69B8
:102C180042F001029A619B6903F001030193019B51
:102C28000320FDF703FC6FF00B0000210A46FDF7B7
:102C38001BFC6FF00A0000210A46FDF715FC6FF037
:102C4800090000210A46FDF70FFC6FF0040000217F
:102C58000A46FDF709FC6FF0030000210A46FDF75C
:102C680003FC6FF0010000210A46FDF7FDFB4FF061
:102C7800FF3000210A46FDF7F7FB064A536823F0A8
:102C8800E06343F08063536003B05DF804FB00BF6A
:102C980000100240000001400268084B9A420CD123
:102CA80082B003F564439A6942F400629A619B69B1
:102CB80003F400630193019B02B07047002C0140AC
:102CC800704700BFFEE700BFFEE700BFFEE700BF9A
:102CD800FEE700BF704700BF704700BF704700BFE6
:102CE80008B5FDF77DFBFDF749FC08BD08B50248AE
:102CF800FDF7A8FF08BD00BFD40E002010B5094C91
:102D080020460949002200F005FA2046074900F04C
:102D180019FA2046064900F0F5FE204600F01AFA96
:102D280010BD00BFE004002034000020AC000020EB
:102D380024000020002070470020704710B501468D
:102D4800044C204600F0EEFE204600F009FF00206B
:102D580010BD00BFE004002010B5064C204606490F
:102D6800002200F0D7FE2046044900F0DBFE0020D8
:102D780010BD00BFE0040020EC0A0020040700207A
:102D8800094BD3F81832D3F8143253B910B50A46A0
:102D98000146054C204600F0BDFE204600F0C8FE66
:102DA80010BD0120704700BFE004002002680E4BF0
:102DB8009A4217D100B583B003F5DA33DA6942F4E1
:102DC8000002DA61DB6903F400030193019B14201C
:102DD80000210A46FDF748FB1420FDF787FB03B0E6
:102DE8005DF804FB704700BF005C004008B5014671
:102DF800D0F85C0401F22C4100F0C8F908BD00BF0E
:102E080008B500EB4113D0F85C04D3F83C2200F07D
:102E1800EBF908BD08B500EB4113D0F85C04DA6B98
:102E280000F012FA08BD00BF08B5D0F85C0400F045
:102E380091FA08BD10B50446D0F85C04012100F0F1
:102E480075FAD4F85C0400F051FA10BD10B50446C8
:102E5800D0F85C0400F06EFAA36923B1024A136942
:102E680043F00603136110BD00ED00E008B5D0F88B
:102E78005C0400F069FA08BD10B504461F48C0F8A4
:102E88005C44C4F820021E4B0360082343600223FD
:102E980083600323C36000238361C3610362FDF77A
:102EA80071FB20B117484FF49771FFF70BFED4F868
:102EB800200200210A461823FDF7C8FFD4F8200293
:102EC800802100225823FDF7C1FFD4F82002812178
:102ED8000022C023FDF7BAFFD4F820020121002206
:102EE8004FF48873FDF7B2FFD4F820028221002244
:102EF8004FF48073FDF7AAFF002010BDD40E002008
:102F0800005C00409C46000808B5D0F82002FDF798
:102F1800B5FB10B1022802D003E0002008BD012053
:102F280008BD022008BD00BF10B51446D0F8200225
:102F38001A462346FDF7CEFB10B1022802D003E063
:102F4800002010BD012010BD022010BD08B5D0F82A
:102F58002002FDF7E9FB10B1022802D003E00020AF
:102F680008BD012008BD022008BD00BF08B5D0F883
:102F78002002FDF715FF10B1022802D003E000205F
:102F880008BD012008BD022008BD00BF08B5D0F863
:102F98002002FDF733FF10B1022802D003E0002021
:102FA80008BD012008BD022008BD00BFD0F82022BE
:102FB80011F0800F06D001F07F0302EB431191F866
:102FC8002A00704701F07F0102EB411191F82A02B3
:102FD800704700BF08B5D0F82002FDF767FB10B1B5
:102FE800022802D003E0002008BD012008BD02200D
:102FF80008BD00BF08B5D0F82002FDF7E5FB10B109
:10300800022802D003E0002008BD012008BD0220EC
:1030180008BD00BF08B5D0F82002FDF7ADFB10B120
:10302800022802D003E0002008BD012008BD0220CC
:1030380008BD00BF08B5D0F82002FDF7BDFB08BDEC
:10304800004870476C020020704700BF704700BFFF
:1030580012230B80004870475400002004230B8083
:10306800004870475000002008B50A4620B90548B6
:10307800054900F0EDFB03E00248034900F0E8FBD6
:10308800014808BDB04600083413002010B50A46B0
:10309800034C0448214600F0DBFB204610BD00BF6E
:1030A80034130020C846000808B50A4620B9054868
:1030B800054900F0CDFB03E00248034900F0C8FBD6
:1030C800014808BDDC4600083413002008B50A464C
:1030D80020B90548054900F0BBFB03E00248034955
:1030E80000F0B6FB014808BDEC4600083413002088
:1030F80008B50A4620B90548054900F0A9FB03E0D0
:103108000248034900F0A4FB014808BDF84600083E
:103118003413002098B108B50346D0F8140210B152
:103128000020C3F8140209B1C3F81012012183F872
:10313800FC111A701846FFF79FFE002008BD0220F8
:10314800704700BF19B1C0F8141200207047022060
:10315800704700BF08B5FFF7D7FE002008BD00BFC5
:1031680008B5D0F8143223B11B68984718B102206B
:1031780008BD022008BD002008BD00BF08B5D0F872
:1031880014325B689847002008BD00BF38B5044674
:1031980000F50275284600F003F90123C4F8F4315C
:1031A800B4F80E32C4F8F83194F8081201F01F038D
:1031B800012B08D013B1022B0AD00EE02046294675
:1031C80000F078FA0EE02046294600F097FA09E068
:1031D8002046294600F0AEFA04E0204601F08001BE
:1031E800FFF7C4FE002038BD38B5044609BBD0F847
:1031F800F431032B26D1D0F80C31D0F810118B42C2
:103208000AD95B1AC0F80C318B4228BF0B4611460D
:103218009AB200F063FB15E0D0F814321B6923B1B1
:1032280090F8FC21032A00D19847204600F060FB63
:1032380008E0D0F814329B6923B190F8FC21032AE6
:1032480000D19847002038BD38B50446002942D13E
:10325800D0F8F431022B36D1C169036A99420CD9EE
:10326800CB1AC36111469AB200F01EFB204600211A
:103278000A460B46FFF7CEFE25E08169B1FBF3F263
:1032880003FB121292B98B4210D8D0F8F831994248
:103298000CD200210A4600F007FB0023C4F8F831DD
:1032A800204619461A46FFF7B5FE0CE0D4F814324A
:1032B800DB682BB194F8FC21032A01D120469847FA
:1032C800204600F021FB94F80032012B0CD100239A
:1032D80084F8003208E0D0F814325B6923B190F822
:1032E800FC21032A00D19847002038BD38B5044690
:1032F80000210A464023FFF717FE4025C4F8105165
:103308002046802100222B46FFF70EFE256201236E
:1033180084F8FC31D4F818322BB1D4F814325B6835
:10332800204621799847002038BD00BF017400204D
:10333800704700BF90F8FC3180F8FD31042380F815
:10334800FC310020704700BF90F8FD3180F8FC3157
:103358000020704708B590F8FC31032B04D1D0F851
:103368001432DB6903B19847002008BD03460020EA
:1033780002E00130C0B201331A78002AF9D170474F
:103388004B88012B0BD110B50446C0F80432D0F895
:1033980014329B689847204600F0AAFA10BD70477F
:1033A8000B7803704B7843708B78CA7803EB022351
:1033B80043800B794A7903EB022383808B79CA799E
:1033C80003EB0223C380704710B504468021FFF742
:1033D800CDFD20460021FFF7C9FD10BD30B583B0F3
:1033E80004460D464A88130A013B062B00F28580E5
:1033F800DFE803F0040D238383657300D0F81032EF
:103408001B68007C0DF106019847014679E0037CB2
:103418004BB9D0F814329B6A0DF106009847014663
:10342800022343706DE0D0F81432DB6A0DF1060018
:10343800984701460223437063E0D2B2052A3AD87E
:10344800DFE802F0030C151E2730D0F810325B6855
:10345800007C0DF106019847014652E0D0F8103281
:103468009B68007C0DF106019847014649E0D0F8B9
:103478001032DB68007C0DF106019847014640E0F8
:10348800D0F810321B69007C0DF1060198470146FF
:1034980037E0D0F810325B69007C0DF106019847DF
:1034A80001462EE0D0F810329B69007C0DF1060130
:1034B8009847014625E02946FFF786FF2EE0037C62
:1034C8003BB9D0F814325B6B0DF106009847014602
:1034D80017E02946FFF778FF20E0037C4BB9D0F8C6
:1034E80014321B6B0DF10600984701460723437001
:1034F80007E02946FFF768FF10E02946FFF764FF59
:103508000CE0BDF806304BB1EA883AB19A4228BFC0
:103518001A46ADF80620204600F0B8F903B030BDD1
:1035280038B504468B88E3B9CB88D3B98D7805F0D4
:103538007F0590F8FC31032B02D1FFF745FF38BD1A
:1035480080F8FE512946FFF745FD204600F0D0F9E6
:103558001DB1022384F8FC3138BD012384F8FC3105
:1035680038BD2046FFF730FF38BD00BF38B50446E8
:103578000D468978264B1970012903D92946FFF78A
:1035880023FF38BD90F8FC31022B02D0032B15D055
:1035980039E081B14160032380F8FC31FFF7E0FD99
:1035A800022804D120462946FFF70EFF38BD2046E1
:1035B80000F09EF938BD00F09BF938BD49B90223E7
:1035C80080F8FC314160FFF7D9FD204600F090F902
:1035D80038BD4368994213D0D9B2FFF7CFFD0C4BE1
:1035E800197861602046FFF7BBFD022804D1204608
:1035F8002946FFF7E9FE38BD204600F079F938BDC5
:1036080000F076F938BD2946FFF7DEFE38BD00BF69
:103618008C04002008B50346CA88012A02D0FFF7A7
:10362800D3FE08BD90F8FC21022A02D0032A08D054
:103638000CE00146002241F8082F012200F026F98B
:1036480008BD191D012200F021F908BDFFF7BCFED5
:1036580008BD00BF08B5034690F8FC21023A012ACC
:103668000DD80122C260D0F804220AB10322C26038
:10367800184603F10C01022200F008F908BDFFF713
:10368800A3FE08BD10B5044690F8FC31023B012B9F
:103698000DD84B88012B0CD10023C0F80432D0F888
:1036A80014329B689847204600F022F910BDFFF7B6
:1036B8008BFE10BD08B54B78092B1BD8DFE803F04B
:1036C80011171A141A08051A0E0BFFF787FE13E0D4
:1036D800FFF726FF10E0FFF749FF0DE0FFF79AFF1D
:1036E8000AE0FFF7B7FF07E0FFF74AFE04E0FFF73D
:1036F800C9FF01E0FFF768FE002008BD38B50446A1
:103708000D4690F8FC31032B0FD10B79012B09D80A
:10371800D0F814329B689847EB8843B9204600F0EC
:10372800E7F804E0FFF750FE01E0FFF74DFE002048
:1037380038BD00BF38B505460C468A88D1B2237813
:1037480003F06003202B05D1D0F814329B68214682
:1037580098477BE06378012B26D0002B48D0032BB9
:1037680074D190F8FC31022B02D0032B07D017E05C
:1037780000296BD0802969D0FFF7F8FB66E06388E1
:1037880023B919B1802901D0FFF7F0FBD5F814321D
:103798009B68284621469847284600F0A9F855E036
:1037A8002146FFF711FE51E090F8FC31022B02D0C0
:1037B800032B07D018E0002948D0802946D0FFF70E
:1037C800D5FB43E06388002B40D111F07F0F07D071
:1037D800FFF7DCFBD5F814329B682846214698474A
:1037E800284600F085F831E02146FFF7EDFD2DE091
:1037F80090F8FC31022B02D0032B06D023E011F005
:103808007F0F23D0FFF7B2FB20E012F0800F05D026
:1038180001F07F0400EB0414143405E001F07F0488
:1038280000EB041404F582742846FFF7BFFB10B1BF
:103838000123236001E00023236028462146022259
:1038480000F024F802E02146FFF7BEFD002038BD55
:10385800D0B170B50D4616460446FFF787FD013016
:10386800400080B23080287003236B70022307E089
:103878005A1CD2B20134E954531CDBB20021A954BA
:1038880021780029F4D170BD704700BF38B50D46C6
:1038980013460222C0F8F4218361C36100212A463D
:1038A800FFF7A8FB002038BD10B50C4613460021D1
:1038B8002246FFF79FFB002010BD00BF38B50D461C
:1038C80013460322C0F8F421C0F80831C0F80C31BF
:1038D80000212A46FFF79EFB002038BD10B50C4694
:1038E800134600212246FFF795FB002010BD00BFBC
:1038F80008B50423C0F8F43100210A460B46FFF747
:1039080079FB002008BD00BF08B50523C0F8F431D5
:1039180000210A460B46FFF77DFB002008BD00BFCB
:10392800D0F818321BB10020C3F8140270470220E7
:10393800704700BF10B5D0F81842D0F81C325BB100
:1039480094F80002FF2807D09B68214694F80122CA
:103958009847FF2384F80032002010BD43230380DA
:1039680000487047680000204323038000487047E0
:10397800340100204323038000487047F0000020F2
:103988000A23038000487047E400002038B5044645
:10399800D0F81852FFF74EFBC5F80C02D4F81832CD
:1039A8004BB1D4F81C32DB68D5F8040205F5037175
:1039B8009847002038BD022038BD00BF70B50546C5
:1039C8000C46D0F818620B7813F0600224D0202A35
:1039D80029D1CA88CAB113F0800F0BD0D0F81C3295
:1039E8009B6848783146984728463146E288FFF771
:1039F8004DFF18E04B7886F80032CB8886F8013204
:103A08003146E288FFF75AFF0DE0D0F81C329B6878
:103A180048780022984706E04B780A2B03D10349DF
:103A28000122FFF733FF002070BD00BF8D04002086
:103A380010B504468121FFF789FA20460121FFF7D6
:103A480085FA20468221FFF781FAD4F8183253B15B
:103A5800D4F81C325B689847D4F81802FFF7F4FAD8
:103A68000023C4F81832002010BD00BF38B5044642
:103A7800037C6BB9812102224FF40073FFF754FADB
:103A88002046012102224FF40073FFF74DFA0AE0A5
:103A9800812102224023FFF747FA20460121022212
:103AA8004023FFF741FA2046822103220823FFF72B
:103AB8003BFA4FF40770FFF7C3FA0546C4F818023B
:103AC800E8B1D4F81C321B6898470023C5F81432B3
:103AD800C5F81832237C4BB920460121D5F80422B9
:103AE8004FF40073FFF796FA002038BD20460121F5
:103AF800D5F804224023FFF78DFA002038BD0120B5
:103B080038BD00BF19B1C0F81C1200207047022050
:103B1800704700BFD0F81832C3F80812C3F8102253
:103B280000207047D0F81832C3F8041200207047FC
:103B380008B5D0F8183273B1D3F814226AB9012243
:103B4800C3F814228121D3F80822B3F81032FFF702
:103B580051FA002008BD022008BD012008BD00BFA1
:103B680008B5D0F8183293B1027C42B90121D3F8D4
:103B780004224FF40073FFF74DFA002008BD01211D
:103B8800D3F804224023FFF745FA002008BD02209D
:103B980008BD00BF014B1868704700BFD80100205E
:103BA800034613F8012B002AFBD1181A0138704775
:103BB80030B5141E9BB0054604DA8B2303604FF022
:103BC800FF301CE04FF40272ADF80C200CBF224607
:103BD80004F1FF32029205924FF6FF7200910491B0
:103BE800ADF80E2069461A461E9B00F075F8431C76
:103BF800BCBF8B232B6014B1009B00221A701BB032
:103C080030BD000073B506460D4614460093044BBC
:103C1800314618682A462346FFF7CAFF02B070BD2E
:103C2800D80100202DE9F0478E688246B3420C4641
:103C38009046994640D38A8912F4906F3AD0256805
:103C4800096902236F1A656905EB450595FBF3F5CC
:103C58007B1C4B449D4238BF1D4653050FD5294652
:103C680000F03AFB064698B121693A4600F0CAFAD4
:103C7800A38923F4906343F08003A38113E02A46C9
:103C880000F080FB064670B95046216900F0E0FA62
:103C98000C23CAF80030A3894FF0FF3043F04003EB
:103CA800A381BDE8F08726613E4426604E466561E3
:103CB800ED1BA560B14500D24E463246206841460C
:103CC80000F0ABFAA36800209B1BA36023681E4486
:103CD8002660BDE8F08700002DE9F0439DB003930E
:103CE8008B8906461C060D4690460CD50B6953B9C0
:103CF800402100F0F1FA2860286110B90C233360E4
:103D0800CCE040236B610023099320238DF82930F0
:103D180030238DF82A3043461C4613F8012B1AB974
:103D2800B4EB08090FD002E0252AF5D1F8E73046B0
:103D3800294642464B46FFF775FF013000F0A9803F
:103D4800099B4B4409932378002B00F0A2800023A1
:103D58004FF0FF3204930793059206938DF8533082
:103D68001A9304F101084446DFF84891217848463F
:103D7800052200F039FA08F10108049B30B1C9EBBB
:103D880000000122824013430493ECE7D80644BFA5
:103D980020228DF85320190744BF2B228DF8532079
:103DA80022782A2A02D0079923460EE0039A013482
:103DB800111D12680391002ABBBF524243F002034F
:103DC80007920792B8BF04930AE01C462278013391
:103DD800303A092A03D80A2000FB0121F5E70791A8
:103DE80023782E2B1AD163782A2B0AD1039B02340D
:103DF8001A1D1B680392002BB8BF4FF0FF330593C1
:103E08000CE0611C00220C4623780131303B092B61
:103E180003D80A2000FB0232F5E70592DFF8988004
:103E280021784046032200F0DFF938B1049AC8EB44
:103E380000004023834013430493013421781A4837
:103E4800062204F101088DF8281000F0CDF988B198
:103E5800164B33B9039B073323F007030833039347
:103E680013E003AB0093304604A92A46104BAFF386
:103E7800008007E003AB0093304604A92A460C4BA8
:103E880000F092F8421C074603D0099B3B44099373
:103E980041E7AB895B0601D4099801E04FF0FF3098
:103EA8001DB0BDE8F08300BF144700080000000003
:103EB8002D3C00080A470008104700082DE9F84380
:103EC80091461F468A680B6906469342B8BF134657
:103ED800C9F8003091F843200C46DDF8208012B173
:103EE8000133C9F800302368990642BFD9F8003079
:103EF8000233C9F80030256815F006051CD094F87F
:103F080043302268003318BF012392061FD5E118F9
:103F1800302081F843005A1C94F84510224402339B
:103F280082F8431013E03046394604F119020123A0
:103F3800C047013007D00135E368D9F800209B1A43
:103F48009D42F0DBDBE74FF0FF30BDE8F8833046F9
:103F5800394604F14302C0470130F4D02268D9F849
:103F68000050E36802F00602042A08BF5D1B2269BC
:103F7800A3680CBF25EAE57500259342C4BF9B1AC8
:103F8800ED184FF00009A9450ADA3046394604F120
:103F98001A020123C0470130D5D009F10109F2E71F
:103FA8000020BDE8F88300002DE9FF410C461746C4
:103FB800227E98466E2A06460A9B01F1430100F0CC
:103FC800B08012D8632A23D00AD8002A00F0BD8016
:103FD800582A40F0CC8084F84520DFF804E257E006
:103FE800642A1ED0692A1CD0C1E0732A00F0B1806F
:103FF80009D86F2A2ED0702A40F0B980226842F082
:10400800200222603FE0752A24D0782A3BD0AEE017
:104018001A6804F14205111D1960136884F84230CA
:10402800A9E020681A6810F0800F02D0101D1860EF
:1040380008E010F0400F02F10400186002D0B2F955
:10404800003000E01368002B3EDA2D225B4284F832
:10405800432039E020681A6810F0800F02D0101D44
:10406800186007E010F0400F02F10400186001D05A
:10407800138800E01368227EDFF864E16F2A0CBF22
:1040880008220A221CE07822DFF858E184F845204B
:104098002268186812F0800F00F104051D6003D132
:1040A800550601D5038800E00368D00744BF42F0F5
:1040B800200222601BB9226822F02002226010220E
:1040C800002084F8430002E0DFF814E10A22656862
:1040D800002DA8BF2068A560A4BF20F004002060C0
:1040E80003B965B10D46B3FBF2F002FB10331EF8BD
:1040F800033005F8013D03460028F4D100E00D46E1
:10410800082A0BD12368DA0708D5236962689A421E
:10411800DEBF302305F8013C05F1FF35491B21615D
:104128002EE025681A6815F0800F606903D0151D08
:104138001D60136808E015F0400F02F104051D60CA
:10414800136801D0188000E01860002323610D4631
:1041580016E01A68111D1960156800212846626862
:1041680000F042F808B1401B6060636804E004F1A5
:10417800420584F8422001232361002384F8433058
:10418800CDF800803046214603AA3B46FFF796FE4D
:10419800013002D14FF0FF301FE0304639462A4641
:1041A8002369C0470130F5D023689B0705D4E06830
:1041B800039B9842B8BF18460FE00025E368039AAE
:1041C8009B1A9D42F3DA3046394604F1190201235D
:1041D800C0470130DED00135F0E704B0BDE8F0811A
:1041E8001B4700082C47000810B5C9B2024490428A
:1041F800034605D01C7801308C42F8D1184610BD12
:10420800002010BD10B5431E0A44914204D011F895
:10421800014B03F8014FF8E710BD814210B501EBDF
:10422800020301D3421E0BE09842FBD28118D21A36
:10423800D34204D013F8014D01F8014DF8E710BD41
:10424800994204D011F8014B02F8014FF8E710BD6C
:1042580030B500293CD051F8042C0B1F1D49002A09
:10426800B8BF9B180A680C4612B95A600B6030BD7B
:1042780093420DD219685818904201BF5A585218E3
:104288001A60426823605A6030BD994203D80A46D2
:1042980051680029F9D1146815199D420AD11B6883
:1042A8002344D0188842136012D10868034413606D
:1042B8004B680CE002D90C23036030BD1C68181948
:1042C800884201BF0868496800191860596053603E
:1042D80030BD00BF9404002070B5CC1C24F003044A
:1042E80008340C2C38BF0C24002C064603DA0C23A7
:1042F8003360002070BD8C42F9D3204A1368104601
:104308001946A1B10A68121B0ED40B2A03D90A60F8
:104318008B188C501FE08B420BBF5A684A680260AA
:104328005A6018BF0B4616E00B464968E9E7144D7A
:104338002B681BB9304600F04BF828603046214600
:1043480000F046F8421C0346D1D0C51C25F00305F1
:1043580085420AD11C6003F10B001A1D20F00700EA
:10436800821A0AD05142995070BD3046E91A00F0BD
:104378002FF80130BBD02B46ECE770BD9404002029
:1043880090040020F8B5074615460E4621B9114697
:10439800BDE8F840FFF7A0BF1AB9FFF759FF284654
:1043A800F8BD00F025F8A8420ED238462946FFF796
:1043B80093FF044650B131462A46FFF723FF38469B
:1043C8003146FFF745FF01E03046F8BD2046F8BD0D
:1043D80038B5064C0023054608462360FEF7D6F993
:1043E800431C02D1236803B12B6038BD9C04002014
:1043F80051F8040C0028BEBF091851F8043CC01835
:10440800043870472E2E2F73797374656D2F73726D
:10441800632F73746D3332663178782F73746D330C
:1044280032663178785F68616C5F636F7274657843
:104438002E6300002E2E2F73797374656D2F73729F
:10444800632F73746D3332663178782F73746D33DC
:1044580032663178785F68616C5F7063642E6300E0
:1044680002030405060708090A0B0C0D0E0F1010AD
:10447800010200002E2E2F73797374656D2F7372ED
:10448800632F73746D3332663178782F73746D339C
:1044980032663178785F68616C5F7263632E63009F
:1044A8002E2E2F73797374656D2F7372632F737447
:1044B8006D3332663178782F73746D3332663178A4
:1044C800785F68616C5F7263635F65782E63000074
:1044D8002E2E2F73797374656D2F7372632F737417
:1044E8006D3332663178782F73746D333266317874
:1044F800785F68616C5F74696D2E63002E2E2F7370
:10450800797374656D2F7372632F73746D333266AC
:104518003178782F73746D3332663178785F6861DB
:104528006C5F74696D5F65782E6300005374616316
:104538006B206672616D653A0A00000020523020D7
:104548003D2020253038580A000000002052312034
:104558003D2020253038580A000000002052322023
:104568003D2020253038580A000000002052332012
:104578003D2020253038580A0000000020523132F2
:10458800203D20253038580A00000000204C5220D9
:104598003D2020253038580A0000000020504320D4
:1045A8003D2020253038580A000000002050535282
:1045B800203D20253038580A000000004653522F6D
:1045C8004641523A0A0000002043465352203D20FB
:1045D80020253038580A00002048465352203D20F4
:1045E80020253038580A00002044465352203D20E8
:1045F80020253038580A00002041465352203D20DB
:1046080020253038580A0000204D4D464152203DA3
:1046180020253038580A00002042464152203D20CB
:1046280020253038580A00004D6973630A000000DD
:10463800204C522F4558435F52455455524E3D2009
:10464800253038580A0000005B486172644661757D
:104658006C745D0A000000005B4275734661756CFE
:10466800745D0A005B55736167654661756C745DBE
:104678000A0000000000000000000000010203041E
:10468800060708092E2E2F7372632F6D61696E2E2F
:10469800630000002E2E2F7372632F757362645FA0
:1046A800636F6E662E63000053544D333220566993
:1046B800727475616C20436F6D506F7274000000E6
:1046C80053544D6963726F656C656374726F6E697C
:1046D80063730000303030303030303030303141AA
:1046E8000000000043444320436F6E666967000082
:1046F80043444320496E7465726661636500000037
:104708004300232D302B2000686C4C0065666745FC
:104718004647003031323334353637383941424331
:1047280044454600303132333435363738396162E2
:054738006364656600EA
:10474000785634121000000001000000E80100203B
:104750000000000000A24A0448656C6C6F576F723D
:104760006C640A00612D00083D2D0008412D0008F1
:10477000452D0008593000086530000895300008C4
:1047800071300008B1300008D5300008F930000859
:10479000040309041201000202020040830440578E
:1047A000000201020301000009024300020100C0EF
:1047B0003209040000010202010005240010010575
:1047C00024010001042402020524060001070582D9
:1047D0000308001009040100020A00000007050197
:1047E000024000000705810240000000753A000801
:1047F000393A0008C5390008000000003D390008BA
:104800002939000895390008000000000000000068
:104810000000000071390008653900087D39000882
:10482000893900080A06000200000040010000006B
:1048300009074300020104C032090400000102021A
:1048400001000524001001052401000104240202D6
:104850000524060001070582030800FF0904010082
:10486000020A00000007050102400000070581025E
:104870004000000009024300020100C032090400A8
:1048800000010202010005240010010524010001BD
:104890000424020205240600010705820308001013
:1048A00009040100020A00000007050102000200DD
:1048B0000705810200020000000000000000000067
:1048C00000000000000000000000000000000000E8
:1048D0000000000000000000084700080000000081
:1048E00000000000000000000000000000000000C8
:1048F00000000000000000000000000000000000B8
:1049000000000000000000000000000000000000A7
:10491000000000000000000078010020325476986A
:040000050800010DE1
:00000001FF
